:100000000C9441010C945E010C945E010C94590F08
:100010000C945E010C945E010C945E010C945E01E4
:100020000C945E010C945E010C945E010C945E01D4
:100030000C945E010C945E010C94770E0C945E019E
:100040000C94970E0C945E010C945E010C945E016E
:100050000C949D150C945E010C941A190C945E017D
:100060000C945E010C94271D0C945E010C945E01AF
:100070000C945E010C945E010C945E010C945E0184
:100080000C945E010C945E010C945E010C94100FB4
:100090000C945E010C945E010C945E010C945E0164
:1000A0000C945E010C945E010C945E010C94991BFF
:1000B0000C945E010C945E010C945E010C945E0144
:1000C0000C945E010C945E010C945E010C945E0134
:1000D0000C945E010C945E010C945E010C945E0124
:1000E0000C945E010C945E010C94651C0C944C1BEA
:1000F0000C945E010C945E010C945E010C945E0104
:100100000C94E60E0C943F0F0C94BF0E0C945E0101
:100110000C945E010C945E010C945E010C945E01E3
:100120000C945E010C945E010C945E010C945E01D3
:100130000C945E010C942F0E0C945E010C944F0EE7
:100140000C945E010C945E010C945E010C945E01B3
:100150000C945E010C945E010C945E010C945E01A3
:100160000C945E010C945E010C945E010C945E0193
:100170000C945E010C945E010C945E010C945E0183
:100180000C945E010C945E010C945E010C945E0173
:100190000C945E010C945E010C945E010C945E0163
:1001A0000C945E010C945E010C945E010C945E0153
:1001B0000C945E010C945E010C945E010C945E0143
:1001C0000C945E010C945E010C945E010C945E0133
:1001D0000C945E010C945E010C945E010C945E0123
:1001E0000C945E010C945E010C945E010C945E0113
:1001F0000C945E010C945E010C945E01AB0346040A
:100200002E04A9045B0395045B03790463045B0378
:100210005B0313040C04A70587056C0553055F03F6
:10022000E7045F0334051B055F035F03FD04BF04A0
:10023000D905D705D505D305D603D105D603CF05F6
:10024000CD05D603D603CB05C9051E0A080AF20957
:10025000DC09C609B0092D0A180B020BEC0AD60AF4
:10026000C00AAA0A270B0D0CF70BE10BCB0BB50B41
:100270009F0B1C0C070DF10CDB0CC50CAF0C990C83
:10028000160D11241FBECFEFCDBFDFE2DEBF11E29E
:10029000A0E0B0E2E2E4F0E402C005900D92AA38DA
:1002A000B107D9F72CE2AAE8B1E201C01D92AB3444
:1002B000B207E1F70E94730F0C941F200C9400000A
:1002C0008F92AF92BF92CF92DF92EF920F931F92D5
:1002D00081E08F9382E291E29F938F9380E2882E58
:1002E0009AE2A92EB12C23E1C22E22E2D22EE12CD9
:1002F00000E021E042E061E082E994E00E94AA137C
:100300000F900F900F900F900F91EF90DF90CF9084
:10031000BF90AF908F900895CF93DF9380E8809344
:100320000606C0E4D6E08E8380E099E00E94B21019
:1003300080E098E00E94B21081E0809366068E8390
:10034000DF91CF9108950C94AD170E942C0D92E08F
:1003500080E830E221E0809305064FEF51EE64E043
:10036000415050406040E1F700C000008093060615
:10037000309365064FEF51EE64E0415050406040CD
:10038000E1F700C0000030936606809345064FEF0A
:1003900051EE64E0415050406040E1F700C0000081
:1003A000809346062093E5074FEF51EE64E04150FD
:1003B00050406040E1F700C000002093E6079150F4
:1003C00051F68FEF93EC29E0815090402040E1F707
:1003D00000C0000092E080E830E221E08093050652
:1003E00030936506809345062093E5074FEF53EC65
:1003F00069E0415050406040E1F700C00000809348
:10040000060630936606809346062093E6074FEF74
:1004100053EC69E0415050406040E1F700C00000FB
:100420009150E1F68FEF93ED20E381509040204012
:10043000E1F700C0000080E2809365060895E3E1E3
:10044000F2E2128213828CE0848315821682178274
:1004500010861186128613861486158616868AE003
:100460008787108A21E0218B82E390E0828B938B37
:1004700088EE93E0848B958B168A178A3EE0308F46
:10048000118E228F2DE730E0238F348F858F968F4A
:10049000178E10A211A212A213A214A210A60895E0
:1004A000E3E1F2E215821682178210861186128627
:1004B0001386148682E292E20E94170883E292E297
:1004C0000E94C90784E292E20E94E20885E292E279
:1004D0000E944E0987E292E20E94430A8BE292E276
:1004E0000E944C088CE292E20E94F0078DE292E2B8
:1004F0000E9408098EE292E20E943D0B80E392E2A4
:100500000E94320C84E392E20E94810885E392E229
:100510000E94B1088BE392E20C940507809191212F
:10052000882371F080E880930506809190218111E5
:100530000EC080E88093460680E2809365060895A9
:1005400080E88093060680919021882391F380E8CB
:100550008093450680E280936506089580E8809345
:1005600006068093460680E2809366060895089505
:100570000895089508950895EF920F931F93109290
:100580008E2110928F218091952181112EC0809112
:100590009421811104C01F910F91EF9008950E9442
:1005A000D41A009118221091192220911A22309108
:1005B0001B22601771078207930768F3109294213A
:1005C00081E0809390210E94DD1A882319F080E851
:1005D0008093450680912B22882359F181E08093F6
:1005E0008C211F910F91EF9008950E94D41A0091D1
:1005F00018221091192220911A2230911B22601783
:1006000071078207930718F21092952181E0809379
:1006100091210E94DD1A811108C080912222882335
:10062000D1F081E080938D21B2CF80E880930506E0
:10063000F4CF20910D2230910E224091042250914E
:100640000522EE24E39401E060910C2280E098E022
:100650000E949E10A0CF2091112230911222409131
:100660000F2250911022EE24E39401E060910622C3
:1006700080E099E00E949E108ACF08950F931F9307
:10068000CF93DF9380919321811141C0809192217A
:10069000811128C080918D21882349F0E091222288
:1006A0008E2F90E0FC013297ED30F10598F04091EB
:1006B0008E2150918F2180918C2181113EC04F5FFE
:1006C0005F4F40938E2150938F21DF91CF911F91E7
:1006D0000F910895E250FF4F40918E2150918F214C
:1006E0000C94CF1D0E94D41A00911C2210911D223F
:1006F00020911E2230911F226017710782079307F5
:1007000048F21092922181E080938A21C3CF0E9407
:10071000D41A00911C2210911D2220911E2230918A
:100720001F22601771078207930708F4AFCF10925A
:10073000932181E080938B21A9CFE0912B228E2FF2
:1007400090E0FC013297ED30F10508F0B8CFE55F9D
:10075000FE4F0C94CF1D9A01369527953695279517
:1007600036952795A5ECB0E20E94D51D929582950D
:100770008F7089279F70892768EE73E0869F9001AC
:10078000879F300D969F300D11244217530709F0B3
:1007900092CF80918C21882349F0E0912B228E2FDB
:1007A00090E0FC013297ED30F10590F1C0E0D1E02E
:1007B000D09365060E94CB1640910A2250910B22DD
:1007C00021E06091032280E099E00E949310CC2305
:1007D00009F4F1C1D09345060E94CB16409107223F
:1007E0005091082221E06091092280E098E00E9467
:1007F000931080911522813009F4ECC1809116226A
:10080000813009F4DDC040918E2150918F2157CF66
:10081000E85EFE4F0C94CF1DCA0187709927892B83
:1008200009F4B7CF48CF9A01ADECBCEC0E94D51DBE
:100830009695879596958795969587959C01220F15
:10084000331F880F991F880F991F880F991F820FD8
:10085000931F4817590709F49CCF2DCF9A0136955D
:1008600027953695279536952795ABE7B4E10E94F5
:10087000D51D9695879568EC689F9001699F300D0E
:1008800011244217530709F484CF15CF9A013695E6
:10089000279536952795A5ECB0E20E94D51D929537
:1008A00082958F7089279F70892764EF71E0869FFA
:1008B0009001879F300D969F300D112442175307EA
:1008C00009F467CFF8CE9A01ADECBCEC0E94D51DBF
:1008D000929582958F7089279F70892764E1689F20
:1008E0009001699F300D11244217530709F451CF2D
:1008F000E2CE9A01AFEAB7E40E94D51D281B390B5E
:1009000036952795820F931F929582958F70892730
:100910009F70892769E1689F9001699F300D1124BC
:100920004217530709F435CFC6CE9A01369527955D
:10093000ABE7B4E10E94D51D9695879562E3689F69
:100940009001699F300D11244217530709F421CFFC
:10095000B2CE9A013695279536952795ABE7B4E147
:100960000E94D51D9695879564E6689F9001699FC2
:10097000300D11244217530709F40BCF9CCEE0E051
:10098000C1E0CA0187709927892BA9F5E1110FCF22
:10099000CC2309F494CE81E0809345060E94CB16C7
:1009A000409107225091082221E06091092280E0C5
:1009B00098E00E94931080911622813009F023CF95
:1009C0008093142260E081E20E9419171CCFE0E0BE
:1009D0009A0136952795ABE7B4E10E94D51D96950F
:1009E000879562E3689F9001699F300D1124C1E0F3
:1009F0004217530759F2C0E0C9CFE0E09A01ADECCD
:100A0000BCEC0E94D51D96958795969587959695F1
:100A100087959C01220F331F880F991F880F991FFC
:100A2000880F991F820F931FC1E04817590709F4D7
:100A3000ADCFC0E0ABCFE0E09A01ADECBCEC0E94E2
:100A4000D51D929582958F7089279F70892764E1C3
:100A5000689F9001699F300D1124C1E04217530730
:100A600009F494CFC0E092CFE0E09A01AFEAB7E496
:100A70000E94D51D281B390B36952795820F931F91
:100A8000929582958F7089279F70892769E1689F69
:100A90009001699F300D1124C1E04217530709F4FA
:100AA00075CFC0E073CFE0E09A0136952795369573
:100AB0002795ABE7B4E10E94D51D9695879564E62E
:100AC000689F9001699F300D1124C1E042175307C0
:100AD00009F45CCFC0E05ACFE0E09A013695279543
:100AE0003695279536952795ABE7B4E10E94D51D3D
:100AF0009695879568EC689F9001699F300D112449
:100B0000C1E04217530709F441CFC0E03FCFE0E016
:100B10009A013695279536952795A5ECB0E20E9467
:100B2000D51D929582958F7089279F70892764EFD4
:100B300071E0869F9001879F300D969F300D1124A4
:100B4000C1E04217530709F421CFC0E01FCFE0E016
:100B50009A01369527953695279536952795A5ECD4
:100B6000B0E20E94D51D929582958F7089279F7063
:100B7000892768EE73E0869F9001879F300D969FCE
:100B8000300D1124C1E04217530709F4FFCEC0E035
:100B9000FDCEE1E0F5CEE1E031CFE1E04DCFE1E0A7
:100BA00064CFE1E015CFE1E07FCFE1E096CFE1E077
:100BB000AFCFE1E0CDCF80911522813009F023CE77
:100BC00081E08093132260E080E20E941917C11136
:100BD00015CE19CEC1E0F4CF84E0809325069AE6C5
:100BE0009A95F1F700C080936606089508950895D8
:100BF000089508950895089508950895089590EE2C
:100C0000980F903240F490E08097FC01E050FF4D47
:100C10002081261711F080E00895880F991FFC01AC
:100C2000E05CFF4D0190F081E02D099581E0089591
:100C300090EE980F903248F4E82FF0E0B097DF0183
:100C4000A050BF4D9C91961711F080E00895EE0FD3
:100C5000FF1FDF01A054BF4D8D919C918217930718
:100C6000A1F7E050F04E0190F081E02DCA01099407
:100C7000FC018081982F9E7F21F48093152281E0D2
:100C8000089580E00895FC018081982F9E7F21F4D3
:100C90008093162281E0089580E00895809191214B
:100CA000882349F023E089E0909190219111822FCF
:100CB00080931722089526E08CE0F6CFFC01808116
:100CC0009181A281B3818093182290931922A093DD
:100CD0001A22B0931B2281E00895FC01808191814A
:100CE000A281B38180931C2290931D22A0931E2287
:100CF000B0931F2281E00895FC018081809320221F
:100D000081E00895FC0180818093212281E0089593
:100D1000FC0180818093292281E00895FC0180817B
:100D200080932A2281E00895FC0180818093322201
:100D300081E00895FC0180818093332281E0089551
:100D4000FC0180818093362281E00895FC0180813E
:100D50008093372281E00895FC01808190913422B4
:100D6000911102C080FD0DC090913522911105C0F6
:100D700081FF03C092E0909345068093382281E082
:100D8000089592E090936506EFCFFC0180819091E9
:100D90003422911102C080FD0DC090913522911135
:100DA00005C081FF03C092E09093460680933922EC
:100DB00081E0089592E090936606EFCF0895FC01DC
:100DC000808190913422911102C080FD0DC09091DC
:100DD0003522911105C081FF03C092E09093470630
:100DE00080933A2281E0089592E090936706EFCFD6
:100DF0008091680686958170E3E1F2E280A7909188
:100E000048069270892B80A70895FC0180819091FB
:100E10003422911105C092E080FF0FC090936506C7
:100E200090913522911105C092E081FD09C0909307
:100E3000460680933B2281E0089590936606F0CFAA
:100E40009093450680933B2281E008958091280687
:100E500083FB882780F980933C22089580E00895E1
:100E6000EF920F93CF93FC01C081C0FF09C0809126
:100E700022228F3029F080919121882309F481C0AA
:100E8000C1FF09C080912B228F3029F080919021E1
:100E9000882309F47AC0C2FF0DC0809122228F30CE
:100EA00049F0809195218111109295218091912195
:100EB000811163C0C3FF0DC080912B228F3049F098
:100EC000809194218111109294218091902181111F
:100ED00050C0C4FF25C0809122228F3009F180913B
:100EE0009121811104C080919521882329F080E00F
:100EF000CF910F91EF9008952091112230911222FD
:100F000040910F2250911022EE24E39401E0609171
:100F1000062280E099E00E949E1081E080938B2160
:100F2000C5FF20C080912B228F30E1F0809190216D
:100F30008111DDCF809194218111D9CF20910D2293
:100F400030910E224091042250910522EE24E39428
:100F500001E060910C2280E098E00E949E1081E008
:100F600080938A21C093172281E0CF910F91EF9057
:100F7000089581E080939221ACCF81E0809393210A
:100F800099CF81E0809395217BCF81E0809394215C
:100F900082CFFC018081982F9E7F01F5882381F00C
:100FA000813051F490E1909306069AE69A95F1F714
:100FB00000C098E0909306068093232281E0089574
:100FC00098E090930506FAE6FA95F1F700C090E1F3
:100FD000909305068093232281E0089580E0089590
:100FE000FC018081982F9E7F01F5882381F081305C
:100FF00051F490E2909346069AE69A95F1F700C074
:1010000090E19093460680932C2281E0089590E130
:1010100090934506FAE6FA95F1F700C090E29093B6
:10102000450680932C2281E0089580E00895CF93B7
:10103000FC018091912181111DC090919521911108
:1010400017C0C0819C2F907F99F4CF30B1F080E21F
:10105000809306068AE68A95F1F700C020E040E01A
:1010600060E080E696E00E944510C093222281E075
:10107000CF91089580E0CF91089521E040E060E0B5
:1010800080E696E00E9430108AE68A95F1F700C06B
:1010900080E280930506E9CFCF93FC0180919021F7
:1010A00081111DC090919421911117C0C0819C2F76
:1010B000907F99F4CF30B1F080E4809306068AE601
:1010C0008A95F1F700C020E040E060E080E496E01F
:1010D0000E944510C0932B2281E0CF91089580E0BB
:1010E000CF91089521E040E060E080E496E00E9426
:1010F00030108AE68A95F1F700C080E480930506F7
:10110000E9CFCF93FC01C0818C2F8C7FC1F4C1301B
:1011100041F0C0F0C230B1F0C093342281E0CF91F1
:10112000089520E040E061E080E696E00E94301003
:101130008AE68A95F1F700C0C0932506EDCF80E0DE
:10114000CF91089581E080932606FAE6FA95F1F7AB
:1011500000C021E040E061E080E696E00E9445109A
:10116000DBCFCF93FC01C0818C2F8C7FC9F4C130C1
:1011700041F0C8F0C230B9F0C093352281E0CF9180
:10118000089520E040E061E080E496E00E943010A5
:101190008AE68A95F1F700C082E080932506ECCFBD
:1011A00080E0CF91089582E080932606FAE6FA95D2
:1011B000F1F700C021E040E061E080E496E00E94A9
:1011C0004510DACF0F93CF93FC01C0818C2F8E7F17
:1011D000D9F4CC2381F0C13041F401E022E040E0B9
:1011E00061E080E096E00E945D10C093242281E0DF
:1011F000CF910F91089501E021E040E061E080E0AF
:1012000096E00E945D10F1CF80E0CF910F9108959C
:101210000F93CF93FC01C0818C2F8E7FD9F4CC2308
:1012200081F0C13041F401E020E440E061E080E67B
:1012300096E00E945D10C0932D2281E0CF910F9126
:10124000089501E020E840E061E080E696E00E9439
:101250005D10F1CF80E0CF910F91089580E0089567
:1012600080E00895089508950895089508950895D3
:101270000895089508950895089508950895089586
:101280000895089508950895089508950895089576
:10129000089508950895089508950895EF92FF928E
:1012A0000F931F93CF93FC0160817181CB01019754
:1012B000883E934020F480919121882341F0C0E042
:1012C0008C2FCF911F910F91FF90EF900895609315
:1012D00025227093262280E090E00E94F71E9B0159
:1012E000AC018FE0E82E82E2F82E06E012E260E028
:1012F00078E488EE91E00E94B71060912722709107
:10130000282280E090E00E94F71E9B01AC0160E083
:1013100074E284E799E40E94561E9B01AC019AE0B6
:10132000E92E92E2F92E03E012E260E078E488EE22
:1013300091E00E94B710C09106228C2F90E0FC0132
:101340003197E730F10510F0C1E0BACFEB5DFE4F09
:10135000609127227091282280E090E00C94CF1DAC
:101360000E94F71E20E030E040E052E40E94A91FF6
:1013700020E030E040E85BE30E94A91F0E94C81E05
:101380006093112270931222C1E09ACF0E94F71E3F
:1013900020E030E040E052E40E94A91F20E030E06D
:1013A00040E85CE30E94A91F0E94C81E60931122BE
:1013B00070931222C1E084CF0E94F71E20E030E03B
:1013C00040E052E40E94A91F20E030E040E05EE3EC
:1013D0000E94A91F0E94C81E6093112270931222BE
:1013E000C1E06ECF0E94F71E20E030E040E052E402
:1013F0000E94A91F20E030E040E85EE30E94A91FA0
:101400000E94C81E6093112270931222C1E058CF2F
:101410000E94F71E20E030E040E052E40E94A91F45
:1014200020E030E040E05FE30E94A91F0E94C81E58
:101430006093112270931222C1E042CF0E94F71EE6
:1014400020E030E040E052E40E94A91F0E94C81E44
:10145000609311227093122233CF0E94F71E20E076
:1014600030E040E052E40E94A91F20E030E040E874
:101470005AE30E94A91F0E94C81E60931122709314
:101480001222C1E01DCFEF92FF920F931F93CF93D3
:10149000FC01808191819C01245631092532334120
:1014A00020F420919121222341F0C0E08C2FCF9194
:1014B0001F910F91FF90EF900895809327229093B2
:1014C0002822609125227091262280E090E00E94DF
:1014D000F71E9B01AC018FE0E82E82E2F82E06E0B9
:1014E00012E260E078E488EE91E00E94B71060912B
:1014F00027227091282280E090E00E94F71E9B0135
:10150000AC0160E074E284E799E40E94561E9B01FE
:10151000AC019AE0E92E92E2F92E03E012E260E0DB
:1015200078E488EE91E00E94B710C09106228C2FDB
:1015300090E0FC013197E730F10510F0C1E0B6CF43
:10154000E45DFE4F609127227091282280E090E0B8
:101550000C94CF1D0E94F71E20E030E040E052E4E2
:101560000E94A91F20E030E040E85BE30E94A91F31
:101570000E94C81E6093112270931222C1E096CF80
:101580000E94F71E20E030E040E052E40E94A91FD4
:1015900020E030E040E85CE30E94A91F0E94C81EE2
:1015A0006093112270931222C1E080CF0E94F71E37
:1015B00020E030E040E052E40E94A91F20E030E04B
:1015C00040E05EE30E94A91F0E94C81E60931122A2
:1015D00070931222C1E06ACF0E94F71E20E030E033
:1015E00040E052E40E94A91F20E030E040E85EE3C2
:1015F0000E94A91F0E94C81E60931122709312229C
:10160000C1E054CF0E94F71E20E030E040E052E4F9
:101610000E94A91F20E030E040E05FE30E94A91F84
:101620000E94C81E6093112270931222C1E03ECF27
:101630000E94F71E20E030E040E052E40E94A91F23
:101640000E94C81E60931122709312222FCF0E9415
:10165000F71E20E030E040E052E40E94A91F20E0A5
:1016600030E040E85AE30E94A91F0E94C81E609320
:10167000112270931222C1E019CFEF92FF920F93C3
:101680001F93CF93FC0160817181CB010197883E4C
:10169000934020F480919021882341F0C0E08C2F6A
:1016A000CF911F910F91FF90EF90089560932E229C
:1016B00070932F2280E090E00E94F71E9B01AC0106
:1016C00084E0E82E82E2F82E0CE012E260E078E49A
:1016D00088EE91E00E94B710609130227091312223
:1016E00080E090E00E94F71E9B01AC0160E074E294
:1016F00084E799E40E94561E9B01AC0197E0E92E15
:1017000092E2F92E09E012E260E078E488EE91E0DE
:101710000E94B710C0910C228C2F90E0FC013197F1
:10172000E730F10510F0C1E0BACFED5CFE4F6091FB
:1017300030227091312280E090E00C94CF1D0E9405
:10174000F71E20E030E040E052E40E94A91F20E0B4
:1017500030E040E85BE30E94A91F0E94C81E60932E
:101760000D2270930E22C1E09ACF0E94F71E20E056
:1017700030E040E052E40E94A91F20E030E040E861
:101780005CE30E94A91F0E94C81E60930D22709303
:101790000E22C1E084CF0E94F71E20E030E040E03E
:1017A00052E40E94A91F20E030E040E05EE30E9486
:1017B000A91F0E94C81E60930D2270930E22C1E0E3
:1017C0006ECF0E94F71E20E030E040E052E40E941D
:1017D000A91F20E030E040E85EE30E94A91F0E94BC
:1017E000C81E60930D2270930E22C1E058CF0E9454
:1017F000F71E20E030E040E052E40E94A91F20E004
:1018000030E040E05FE30E94A91F0E94C81E609381
:101810000D2270930E22C1E042CF0E94F71E20E0FD
:1018200030E040E052E40E94A91F0E94C81E60936D
:101830000D2270930E2233CF0E94F71E20E030E07D
:1018400040E052E40E94A91F20E030E040E85AE363
:101850000E94A91F0E94C81E60930D2270930E2241
:10186000C1E01DCFEF92FF920F931F93CF93FC0126
:10187000808191819C01245631092532334120F425
:1018800020919021222341F0C0E08C2FCF911F9115
:101890000F91FF90EF900895809330229093312222
:1018A00060912E2270912F2280E090E00E94F71E1E
:1018B0009B01AC0184E0E82E82E2F82E0CE012E2FB
:1018C00060E078E488EE91E00E94B71060913022E9
:1018D0007091312280E090E00E94F71E9B01AC01E4
:1018E00060E074E284E799E40E94561E9B01AC011B
:1018F00097E0E92E92E2F92E09E012E260E078E446
:1019000088EE91E00E94B710C0910C228C2F90E0DD
:10191000FC013197E730F10510F0C1E0B6CFE65C8D
:10192000FE4F609130227091312280E090E00C9463
:10193000CF1D0E94F71E20E030E040E052E40E94FC
:10194000A91F20E030E040E85BE30E94A91F0E944D
:10195000C81E60930D2270930E22C1E096CF0E94A4
:10196000F71E20E030E040E052E40E94A91F20E092
:1019700030E040E85CE30E94A91F0E94C81E60930B
:101980000D2270930E22C1E080CF0E94F71E20E04E
:1019900030E040E052E40E94A91F20E030E040E047
:1019A0005EE30E94A91F0E94C81E60930D227093DF
:1019B0000E22C1E06ACF0E94F71E20E030E040E036
:1019C00052E40E94A91F20E030E040E85EE30E945C
:1019D000A91F0E94C81E60930D2270930E22C1E0C1
:1019E00054CF0E94F71E20E030E040E052E40E9415
:1019F000A91F20E030E040E05FE30E94A91F0E94A1
:101A0000C81E60930D2270930E22C1E03ECF0E944B
:101A1000F71E20E030E040E052E40E94A91F0E943F
:101A2000C81E60930D2270930E222FCF0E94F71EC6
:101A300020E030E040E052E40E94A91F20E030E0C6
:101A400040E85AE30E94A91F0E94C81E60930D221D
:101A500070930E22C1E019CF0F93CF93DF9320E054
:101A600040E060E080E096E00E94301020E040E03E
:101A700061E080E096E00E94301020E040E067E006
:101A800080E696E00E94301020E040E066E080E6CC
:101A900096E00E94301020E040E063E080E296E0B3
:101AA0000E94301021E040E060E080E696E00E9475
:101AB000301020E040E061E080E696E00E943010C7
:101AC00021E040E060E080E496E00E94301020E0F9
:101AD00040E061E080E496E00E94301000E021E008
:101AE00040E061E080E096E00E945D1022E040E08E
:101AF00061E080E096E00E945D1020E840E061E057
:101B000080E696E00E945D1020E440E061E080E61F
:101B100096E00E945D1028E041E061E080E296E0FE
:101B20000E945D1021E041E061E080E696E00E94C5
:101B30005D1021E041E061E080E496E00E945D10EC
:101B400021E040E067E080E096E00E94451021E05F
:101B500040E067E080E496E00E94451021E040E02C
:101B600060E080EE97E00E94451021E040E065E0F3
:101B700080E696E00E94451021E040E063E080E0CE
:101B800096E00E94451021E040E064E080E096E0AD
:101B90000E94451021E040E064E080E496E00E946D
:101BA000451021E040E065E080E496E00E944510A9
:101BB00021E040E060E080E296E00E94451021E0F4
:101BC00040E061E080E296E00E94451021E040E0C4
:101BD00065E080E096E00E94451021E040E066E08C
:101BE00080E096E00E94451021E040E062E080E65F
:101BF00096E00E94451021E040E062E080E296E03D
:101C00000E944510E0E0F6E080E88683A0E4B6E0BC
:101C100016968C93169791E09093E607C0E6D6E06F
:101C200080E28E8328E0258320E1268315962C937D
:101C3000159716968C93A0E2B6E016969C9316978D
:101C400092E016969C931697868380E4868384E0C0
:101C50008E8315968C93DF91CF910F91089580918B
:101C60008D21882399F081E0809366061092000907
:101C700080918B21882391F010928B2110929121D9
:101C800010928D2180E88093060608C00E94CB1632
:101C90006DE372E285E492E20E94B5161895809198
:101CA0008B21882359F010928B211092912180E092
:101CB00099E00E94B21080E8809306068091152278
:101CC0008130A1F48093132240913D2250913E2215
:101CD000609145227091462280914722909148223E
:101CE0000E94A81660E080E20E9419171895809162
:101CF0008C21882399F081E0809346061092000899
:101D000080918A21882391F010928A21109290214B
:101D100010928C2180E88093460608C00E94CB1662
:101D200063E472E28FE392E20E94B5161895809107
:101D30008A21882359F010928A211092902180E004
:101D400098E00E94B21080E88093460680911622A7
:101D50008130A1F480931422409143225091442277
:101D600060913F22709140228091412290914222C5
:101D70000E94A81660E081E20E94191718958091D0
:101D80002422811104C080910806817004C08091D2
:101D9000080686958170882391F080911522811123
:101DA00007C082E08093132261E080E20E9419174D
:101DB00080913422823049F48093650606C0809178
:101DC0003422823011F480936606189580912D227A
:101DD000811106C080916806881F8827881F05C06A
:101DE0008091680686FB882780F9882391F080918E
:101DF0001622811107C082E08093142261E081E203
:101E00000E94191780913522823049F4809345064B
:101E100006C080913522823011F4809346061895D1
:101E20008091280683FF16C080919621811126C0DB
:101E300081E080939621909122229F30F9F0909139
:101E40002B229F30D9F080933C2261E08FE30E94E7
:101E5000191714C080919621882381F01092962141
:101E6000809122228F3051F080912B228F3031F0DF
:101E700010923C2261E08FE30E941917189580911F
:101E8000680680FF15C080911522813089F49091F9
:101E900022229F3069F48093132261E080E20E9445
:101EA00019170E94DD1A882319F080E8809305062F
:101EB00018958091480680FF15C0809116228130C8
:101EC00089F490912B229F3069F48093132261E072
:101ED00080E20E9419170E94DD1A882319F080E819
:101EE0008093450618950E9460018091A200876842
:101EF0008093A2007894FFCF222309F45BC030E2E4
:101F00003093520038E0309350003091510033FF4D
:101F1000FCCF611538E4730738EE830731E093078F
:101F200009F482C0611534E2730734EF8307910529
:101F300009F47CC0611532E173073AE78307910524
:101F400009F44BC0611539E073073DE38307910540
:101F500009F46EC0603834E873073EE183079105E9
:101F600009F460C0603432E473073FE083079105F1
:101F700009F462C0603231EA730737E083079105E4
:101F800009F458C0603930ED730733E083079105D9
:101F900009F454C0683438EE730731E083079105C3
:101FA00009F44EC06432744F8105910509F04AC0AE
:101FB00084E414C032E2309352003AE0309350008F
:101FC0003091510031FFFCCF3091510033FDA1CF52
:101FD0003091510033FFF8CF9CCF8CE098ED94BF47
:101FE000222399F023E02093400094BF8093410086
:101FF000442329F088ED84BF81E08093420088ED7E
:1020000084BF81E080938000089521E02093400008
:1020100094BF8093410094BF82E080935600209348
:102020006000E6CF8CE1DACF80E0D8CF84E0D6CF75
:1020300084E1D4CF8CE2D2CF84E2D0CF84E3CECF80
:102040008CE3CCCF80E0089588ED84BF81E080935D
:102050008000089588ED84BF83E080938000FFCFE7
:10206000FC01308181E090E0062E01C0880F0A94C7
:10207000EAF78095832380837096E60FF11D8081B7
:10208000422B807C482B40830895FC01308181E005
:1020900090E0062E01C0880F0A94EAF7382B3083AF
:1020A0007096E60FF11D8081807C842B8083211146
:1020B00003C080818760808308950F93FC01318580
:1020C000842F90E0880F991FA3E0B0E0082E01C094
:1020D000AA0F0A94EAF7A095A323082E01C0660F61
:1020E0000A94EAF7A62BA18741110FC00023A9F09B
:1020F0002287248581E090E0042E01C0880F0A9495
:10210000EAF7282B24870F910895413091F70111A8
:1021100008C08385822B8387ECCF8285822B8287C0
:10212000E8CF2387E6CFFC0110828CE08187415005
:10213000510946A357A3268360830895EF920F9316
:10214000FC0110828CE081874150510946A357A3BE
:1021500020A731A70683E78283E1818360830F9103
:10216000EF900895FC0110822CE0218708954F9292
:102170005F926F927F928F929F92AF92BF92EF92F7
:10218000FF920F931F932B013C0149015A0120E05C
:1021900030E0A901C501B4010E94511E882309F451
:1021A00042C0C301B2010E94F71EA50194010E9422
:1021B000561E20E030E040E05FE30E94E51D0E94F3
:1021C000C81E6115710521E082079105A0F421E088
:1021D000F8012083F7016083718381E01F910F91E3
:1021E000FF90EF90BF90AF909F908F907F906F90F7
:1021F0005F904F90089596958795779567956115AF
:102200007105F1E08F07910580F096958795779598
:10221000679561157105F1E08F07910550F423E092
:10222000F8012083D7CF80E0D9CF22E0F8012083C6
:10223000D1CF969587957795679561157105F1E0F2
:102240008F07910588F0A3E0969587957795679518
:10225000AA95D1F761157105F1E08F07910540F45A
:1022600025E0F8012083B6CF24E0F8012083B2CF27
:1022700096958795779567959695879577956795C0
:1022800061157105F1E08F07910520F426E0F80152
:102290002083A0CF96958795779567959695879596
:1022A0007795679561157105F1E08F07910508F045
:1022B000BACF27E0F80120838DCFFC0110828CE09B
:1022C00081874150510946A357A32683608308950F
:1022D0002091CF0127FDFCCF8093C0019093C101D5
:1022E0001092C20186E08093CA0188ED84BF81E02C
:1022F0008093CB018091C40108952091CF0127FDE7
:10230000FCCF2091CF0121FF08C026E32093CA0112
:1023100028ED24BF21E02093CB0123E32093CA01C1
:102320008093C0019093C1011092C2016093C401D7
:1023300085E38093CA0188ED84BF81E08093CB015F
:102340000895CF93962F1092FC21803208F47FC01D
:10235000282F30E020523109F901E050FF4D508123
:10236000220F331FF901E054FF4DC081F901E058FD
:10237000FF4D2081318120939D2130939E219093A8
:102380004922252F2F702C9FC02D1124EAE0EC0F3D
:10239000E0934A2280934B222FEF20934C225061EE
:1023A00050934D2241116BC08091992190919A21B7
:1023B000A0919B21B0919C2180934E2290934F221B
:1023C000A0935022B09351222091972130919821CF
:1023D00020935222309353228E2F90E08E3F91050E
:1023E000A4F520919D2130919E2140E0842F90E022
:1023F000F901E80FF91F5081FC01EC5AFD4D5083A3
:102400004F5F4C13F3CF20914A222E5F30E02150D2
:102410003109121613060CF09FC080E090E040E0F6
:1024200050E0FC01E75BFD4D8081580F4F5F842F2A
:1024300090E082179307ACF3F901E75BFD4D508301
:1024400080912021813009F46BC0CF9108958F30A5
:10245000E0F7282F30E0F901E558FE4D5081220FBA
:10246000331FF901E35AFE4DC081F901E15CFE4DD5
:102470002081318120939D2130939E2180CF209116
:102480004C084091B1215091B2216091B3217091DB
:10249000B42120FF21C04F5F5F4F6F4F7F4F4093AC
:1024A0004E2250934F2260935022709351222091DC
:1024B0006008309161082093522230935322883073
:1024C00009F08ACF933009F087CF109252221092F0
:1024D0005322E0914A2280CF40934E2250934F22C4
:1024E00060935022709351222091600830916108CE
:1024F0002093522230935322F091A221F03DF9F61D
:102500002F303105E0F64F5F5F4F6F4F7F4F4093A5
:102510004E2250934F226093502270935122CFCF7E
:1025200083E88093A200C091A30A9091A30A9C7FA4
:102530009093A30A60914A226E5F89E492E20E941E
:10254000D91B9091A30A8C2F8370892B8093A30AA7
:1025500087E88093A20079CF50E06ECFCF93E091CF
:102560004C2B2E2F30E024303105BCF090E020E0E1
:1025700030E0F901E05BF44D4081F901EA5AF44D95
:1025800040839F5F292F30E0E0914C2B4E2F50E08D
:10259000435051092417350764F380934B2BEA5FAE
:1025A000E0934C2B80914F2B806180934F2B809137
:1025B0004C0880FF5FC08091B1219091B221A09121
:1025C000B321B091B421AC01BD014F5F5F4F6F4F9C
:1025D0007F4F4093502B5093512B6093522B70930D
:1025E000532B20916008309161082093542B309335
:1025F000552B2091FC212223B9F020914C0820FF7B
:1026000069C00196A11DB11D8093502B9093512B51
:10261000A093522BB093532B809160089091610846
:102620008093542B9093552BF0E0E45BF44D108293
:1026300060914C2B40E0262F30E080E090E0F901E3
:10264000E45BF44DDC01A55BB44D20818C91280F37
:1026500020834F5F60914C2B262F30E0842F90E039
:102660002817390764F780912021813009F457C079
:10267000CF9108958091B1219091B221A091B32181
:10268000B091B4218093502B9093512BA093522B57
:10269000B093532B20916008309161082093542B04
:1026A0003093552B4091A221403D09F0A2CF2F300D
:1026B000310508F09ECFAC01BD014F5F5F4F6F4FFA
:1026C0007F4F4093502B5093512B6093522B70931C
:1026D000532B8FCF8093502B9093512BA093522B41
:1026E000B093532B20916008309161082093542BB4
:1026F0003093552B4091A221403D09F095CF2F30CA
:10270000310508F091CF0196A11DB11D8093502B8A
:102710009093512BA093522BB093532B85CF83E8EA
:102720008093A200C091A30A9091A30A9C7F9093EA
:10273000A30A6E5F8BE49BE20E94D91B9091A30ACF
:102740008C2F8370892B8093A30A87E88093A20043
:10275000CF9108952F923F924F925F926F927F9206
:102760008F929F92AF92BF92CF92DF92EF92FF92A1
:102770000F931F93CF93DF931F92CDB7DEB73C012A
:10278000462E142FF22E3E882F88988C598C0E944A
:10279000241021E041E060E078E488EE91E00E94BE
:1027A0007C0F81E0809348006092A8217092A9215B
:1027B0004092AA211093AB21E092AC218093AD21ED
:1027C0008AE08093AE21F092AF210093B021109265
:1027D000B1211092B2211092B3211092B421109223
:1027E000B5211092B62182E090E00E946811482E37
:1027F00083E090E00E94681189838F3F09F426C12D
:10280000F41409F4D7C06FED80E090E00E947D11D0
:102810006F2D82E090E00E947D1161E083E090E006
:102820000E947D110E94A50180E090E00E94681145
:102830008E3E09F4CCC080E68093B72180E480937B
:10284000D4210E94F7058091D4219110A5C090E079
:10285000892B552009F4A4C090E1892B8093D421C1
:102860000E94A30180E48093B8210E941F020E946D
:102870005002A092A621B092A721C092A421D0928A
:10288000A5218092A32187E090E00E9468118F3FEC
:1028900009F41BC109EB11E2F6EFEF2EFF24FA94C5
:1028A000C701885A91427C01C701800F911F0E9485
:1028B0006811F80181938F01F1E2023D1F07A1F732
:1028C00089E1E9EBF1E2A6EDB1E201900D928A9582
:1028D000E1F784E090E00E946811082F10E0009377
:1028E000D2211093D32185E090E00E946811302F0F
:1028F0002227282B2093D2213093D3218091D421D9
:10290000992009F44FC08860511050C08F7E809389
:10291000D42121E042E15AE767E080E498E00E9498
:102920005D11E091A22181E08E0F8093A221F0E061
:10293000E95CFE4D808190E0019780936808909358
:10294000690811E01093470820E040E060E080EE65
:1029500097E00E9445101093E50740E060E081E0B9
:1029600090E00E94E31A0E94411B81EB91E20F90DC
:10297000DF91CF911F910F91FF90EF90DF90CF905B
:10298000BF90AF909F908F907F906F905F904F908F
:102990003F902F900C94FC1C98E0892B51105CCF39
:1029A00090E05BCF877F552009F4B0CF80618093A2
:1029B000D421AFCF9981913009F025CF0E94A50194
:1029C00080E090E00E9468118E3E09F034CF81E0F3
:1029D00090E00E9468118093B721A114B10499F08E
:1029E000760185010C0D1D1DA0E26A2E712CC3011C
:1029F0000E946811F70181937F01FFEF6F1A7F0A30
:102A0000E016F106A1F786E090E00E946811982F89
:102A10009F7790649093D421992011F080FD72C02B
:102A200051100AC097FD73C096FD0DC080E88093D9
:102A3000B8210E9450021DCF91FFF4CF0E94F605ED
:102A40009091D421EFCF0E94F705F0CF6F2D82E057
:102A500090E00E947D1161E083E090E00E947D1192
:102A600082E090E00E946811482E83E090E00E948E
:102A700068118983032D122DB7E06B2E712CE12C88
:102A80000CC0E1100FC0C3010E947D11FFEF6F1A4F
:102A90007F0A80E26816710491F0F80161918F015C
:102AA0006111EFCF60E0C3010E947D11EE24E39439
:102AB000FFEF6F1A7F0A80E26816710471F76FEDFD
:102AC00080E090E00E947D119BCEE32CF22C07E089
:102AD00010E0D12C0BC0D1100EC0C8010E947D1196
:102AE0000F5F1F4F0032110509F4D4CEF701619139
:102AF0007F016111F0CF60E0C8010E947D11DD24EB
:102B0000D394EECF0E94EC059091D42189CF0E94FE
:102B1000F8059091D42188CF0E948C0121E080E0BB
:102B200092EEA4E0B0E00197A109B1090097A105D8
:102B3000B105C9F72093E707F2CF8091B1219091B9
:102B4000B221A091B321B091B4210196A11DB11D74
:102B50008093B1219093B221A093B321B093B4217B
:102B60008091FA218F5F8093FA218EE090E080932C
:102B700068089093690881E08093A2210E94BA02BC
:102B800080914C08806180934C080E94BC020E9496
:102B90003E034091B72147FD03C0842F8370B4C02A
:102BA000842F8370813009F0AFC01092FC2181EB3B
:102BB00091E280939D2190939E2183E0809349220E
:102BC0008EE080934A2288E080934B228FEF80939F
:102BD0004C2284E180934D2280914C0880FF18C0E4
:102BE0008091B1219091B221A091B321B091B421F3
:102BF0000196A11DB11D80934E2290934F22A09368
:102C00005022B0935122809160089091610826C0B3
:102C10008091B1219091B221A091B321B091B421C2
:102C200080934E2290934F22A0935022B093512232
:102C300020916008309161085091A221503D71F4BB
:102C40002F30310558F40196A11DB11D80934E22FD
:102C500090934F22A0935022B0935122109252226F
:102C6000109253228091B1219091B221A091B32171
:102C7000B091B4218093542290935522A093562270
:102C8000B093572220914A222E5F30E02150310923
:102C90001216130684F450E060E080E090E0FC013E
:102CA000E75BFD4D8081680F5F5F852F90E08217A5
:102CB0009307ACF301C060E0F901E75BFD4D608371
:102CC00080912021813029F583E88093A200C09172
:102CD000A30A9091A30A9C7F9093A30A60914A2231
:102CE0006E5F89E492E20E94D91B9091A30A8C2F17
:102CF0008370892B8093A30A87E88093A200409178
:102D0000B721842F837000C0882339F0813019F4F3
:102D100000C092E003C091E001C094E08091B12135
:102D2000892321F081E08093E60705C046FF03C0B8
:102D300081E08093E5070E94BB0280914C0884FFEC
:102D400006C08091A121811102C00E948C151895A6
:102D50006093992170939A2180939B2190939C2159
:102D600040939721509398210895FB014091992118
:102D700050919A2160919B2170919C21DC014D938F
:102D80005D936D937C9313978091972190919821F7
:102D90008083918308951092FC2180914C0880FFDC
:102DA0001CC08091B1219091B221A091B321B0912A
:102DB000B4210196A11DB11D8093992190939A2170
:102DC000A0939B21B0939C21809160089091610811
:102DD000809397219093982108958091B1219091AB
:102DE000B221A091B321B091B42180939921909305
:102DF0009A21A0939B21B0939C212091600830914F
:102E0000610820939721309398214091A221403D61
:102E100009F008952F303105E0F70196A11DB11D8D
:102E20008093992190939A21A0939B21B0939C2108
:102E300008959091B7219370913009F00895462F2D
:102E400063E00C94A111FF920F931F93CF93DF9334
:102E5000FC0180818130F1F0823009F448C0843077
:102E600009F44DC0883039F081E0DF91CF911F9196
:102E70000F91FF9008956FEF87E090E00E947D1121
:102E800083E08093A12181E0DF91CF911F910F9189
:102E9000FF90089506ED11E2C7E0D0E0F12C09C0E3
:102EA000F1100CC0CE010E947D112196C032D105D7
:102EB00079F0F80161918F016111F2CF60E0CE01EC
:102EC0000E947D11FF24F3942196C032D10589F729
:102ED0006FED80E090E00E947D1183E08093A1215E
:102EE00081E0DF91CF911F910F91FF90089580E0D5
:102EF00090E00E9468118E3E19F280E0B6CF6EEE2F
:102F000080E090E00E947D116091B72181E090E027
:102F10000E947D116091D42186E090E00E947D1195
:102F20008091A6219091A721892B09F4A9CFC0E017
:102F3000D0E0E091A421F091A521EC0FFD1F60816C
:102F4000CE0180960E947D1121968091A6219091BC
:102F5000A721C817D90768F393CF8091D42183FFA5
:102F600004C080FF04C081E0089580E008958D7F53
:102F700081608093D4210E94EC058091D42187FF49
:102F8000F2CF8F7780648093D4210E94F705EBCF36
:102F9000CF93DF93FC01C0818C2F8170C0FF04C0F0
:102FA0009091D42193FF34C0DC2FD270C1FF04C0B4
:102FB0009091D42194FF2CC0C7FD26C0882321F016
:102FC0008091D42180FF28C0DD2321F08091D4217D
:102FD00081FF33C0C6FF04C08091D42186FF34C076
:102FE000C7FD04C081E0DF91CF9108958091D42185
:102FF00087FDF8CF8F7B80688093D4210E94F805ED
:1030000081E0DF91CF9108959091D42190FFD6CFA8
:1030100080E0DF91CF9108958D7F81608093D421EE
:103020000E94EC058091D42187FFCECF8F778064FA
:103030008093D4210E94F705C7CF8E7F8260809352
:10304000D4210E94F605C6CF8F7780648093D42167
:103050000E94F705C5CFCF92DF92FF920F931F9387
:10306000CF93DF9300D0CDB7DEB78F3040F4E82F99
:10307000F0E0DF01A558BE4D9C91961759F080E015
:103080000F900F90DF91CF911F910F91FF90DF90E4
:10309000CF900895EE0FFF1FE35AFE4D60817181BE
:1030A0006217730761F7883009F446C08A30B9F0B7
:1030B0008B3009F483C08C3009F497C08D3009F44B
:1030C0004EC08E30E1F6CA010F900F90DF91CF9184
:1030D0001F910F91FF90DF90CF900C94C817FA01C9
:1030E000108116FD03C081E08093E6070091B721AF
:1030F000812F837F8093B72115FF5BC005FF93C0AD
:1031000013FF0EC081E08093F2211092F021809392
:10311000F1211092EF218091B721877F8093B72111
:103120001370E9F5037011F481E0AACF1092F22137
:103130000E94B70281E0A4CF8091D42187FD9FCF68
:10314000FA0180819181A281B3818093B121909312
:10315000B221A093B321B093B42181E091CFFA01C1
:1031600080819181019609F461C08091D5218823E5
:1031700009F485CFFA01608185E090E049835A83A4
:103180000E947D1149815A81FA01618184E090E0B9
:103190000E947D1183E08093A12181E071CF1130E5
:1031A000C9F40370013009F4BFCF0E94B80281E076
:1031B00067CF05FFA5CF0E94AE02A2CFCA010F9034
:1031C0000F90DF91CF911F910F91FF90DF90CF90E3
:1031D0000C942317133009F0A7CF0370033009F4C0
:1031E000A3CF0E94B90281E04BCF8A0187E0C82EAD
:1031F000D12CF12C0CC0F1100FC0C6010E947D1122
:10320000FFEFCF1ADF0A20E2C216D10419F2F8014B
:1032100061918F016111EFCF60E0C6010E947D11C5
:10322000FF24F394EDCF0E948E026ACF81E0809359
:10323000D52126CF0E94BA02809168089091690832
:10324000E091A22121E02E0F2093A221E770F0E06F
:10325000E95CFE4D3081830F911D80936808909347
:10326000690820FD2FC180912021813071F482E016
:103270008093850683E88093A2008091A30A8F7CC7
:103280008093A30A87E88093A2008091F92181119D
:1032900003C08091F8210FC081508093F9218823C9
:1032A00019F08091F82107C01092F9211092F821AD
:1032B0001092F321A5C0882309F4A2C0A09149234C
:1032C000B0914A2380914C2B8F3F59F010914D2B98
:1032D00050914E2B00914F2B30E5E32E3BE2F32E25
:1032E0000AC010914F2B5091502B0091512B22E589
:1032F000E22E2BE2F22EFD01319681F090E040E0CB
:1033000020E030E0E901C55BD44D2881420F9F5F8A
:10331000292F30E02E173F07A8F301C040E0E55BFE
:10332000F44D908149136AC05F3F09F067C09091E6
:103330004B2B9130A9F51D31B0F41F3008F028C196
:10334000E12FF0E0E558FE4D9081091321C11930BD
:1033500009F019C180916008909161088093B521AE
:103360009093B62110C1602F812F0E94FF0590918C
:10337000B72194FD43C0811103C080914C2B06C03E
:1033800041E061E0812F0E94A11138C01092FC2120
:1033900090E0883F910594F589E00E94AE122EC01E
:1033A000CD010497202F2F70622F70E00E94BB1D6B
:1033B0001D3138F49B01A701602F812F0E942B182B
:1033C00006C09B01A701602F812F0E9418069091D3
:1033D000B72194FD13C0882331F041E062E0812FD2
:1033E0000E94A1110BC01092FC2180914C2B90E007
:1033F000883F91051CF48AE00E94AE121092F821D9
:1034000080912021813009F05AC08091880680FF88
:1034100044C080919F219091A0210196883B2BE090
:10342000920729F080939F219093A0213AC0109297
:103430009F211092A0218091B721982F93709130F5
:10344000D9F486FF9093E607982F907F9093B72149
:1034500083FF0BC01092F02181E08093F121109244
:10346000EF21892F877F8093B7211092F2210E944C
:10347000B7029091202101C091E01092F6211092A4
:10348000F7211092F4211092F5218091A30A8C7FEC
:103490008093A30A913029F012C010929F211092BC
:1034A000A02183E88093A2008091A30A8063809387
:1034B000A30A87E88093A20082E0809386060E9498
:1034C0003D0302C00E943E038091A121882339F070
:1034D00081508093A121811102C00E942A10809105
:1034E000F1218823E1F08091A22183708230B9F428
:1034F0008091EF218F3060F4893009F04EC0209127
:103500006008309161082093B5213093B62145C001
:103510008F5F8093EF218C3111F41092F121809113
:10352000F221882311F18091A2218370F1F480911E
:10353000F021E82FF0E0E050FF4D6081805E0E94B6
:10354000FF05882339F08091F02141E061E0805E41
:103550000E94A1118091F0218F5F8093F0219091C2
:10356000A321891302C01092F2210E94BB02809114
:103570004C0884FF06C08091A121811102C00E94E5
:103580008C15189511C08091B72184FFF9CE36CFE4
:103590009091B72194FFFACE31CF41E061E00E94D3
:1035A000A1118091EF21B4CF6091B1217091B2212E
:1035B0008091B3219091B42108958091B72185FB2A
:1035C000882780F90895FF920F931F93CF93DF937D
:1035D00000D0CDB7DEB789839A83F62E142F20E072
:1035E00040E061E080E896E00E94451020E040E085
:1035F00060E080E896E00E94301001E021E040E0C9
:1036000063E080E896E00E945D1082E08093860689
:1036100083E08093A50A89818093A60A8F2D90E18B
:103620008902B00111248A818F70862B8093A70AAA
:10363000112329F08091A40A84608093A40A88E071
:103640008093850620E040E063E080E896E00E94F9
:10365000451020E040E062E080E896E00E943010F3
:103660008091880680FF05C08091A30A8C7F80939B
:10367000A30A0F900F90DF91CF911F910F91FF90B0
:103680000895E0EAFAE084818861848380EE818392
:1036900083818063838308951F920F920FB60F92E8
:1036A00011242F933F934F935F936F937F938F9347
:1036B0009F93AF93BF93EF93FF930E94FB052091DD
:1036C000F6213091F721C90101968093F62190935C
:1036D000F721F901E55BFC4D20812093A00A8115BB
:1036E00028E09207F9F02091F4213091F521281774
:1036F000390729F48091A30A8C7F8093A30A0E9442
:10370000FC05FF91EF91BF91AF919F918F917F91B8
:103710006F915F914F913F912F910F900FBE0F903E
:103720001F9018951092F6211092F72180E090E0FA
:10373000DACF1F920F920FB60F9211242F933F935F
:103740004F935F936F937F938F939F93AF93BF93A9
:10375000EF93FF930E94FD058091880680FD23C0B2
:103760002091F6213091F7218091F4219091F5215B
:103770002817390729F08091A30A83608093A30A50
:103780000E94FE05FF91EF91BF91AF919F918F91A4
:103790007F916F915F914F913F912F910F900FBE4D
:1037A0000F901F9018958091A30A8C7F8093A30A95
:1037B000E7CFBF92CF92DF92EF92FF920F931F93CA
:1037C000CF93DF936C01B62E8091880680FD05C0F3
:1037D0008091A30A83608093A30A0091F421109141
:1037E000F521C0E0D8E0C01BD10BEB2CF12CCE159D
:1037F000DF0560F1A701B601C801855B9C4D0E9401
:1038000016208091F6219091F721E00EF11EE092B2
:10381000F421F092F521E11428E0F20609F448C001
:1038200008171907B8F5E816F906A0F18FEFE81A9E
:10383000F80AE092F621F092F721E11428E0F2066E
:1038400049F51092F6211092F72124C0AE01B6017D
:10385000C801855B9C4D0E941620BC1AEB2CF12CF4
:10386000BE016C0D7D1DA7018BE493E20E94162022
:103870008091F6219091F721E092F421F092F521C8
:103880000817190788F42FEFE21AF20AE092F621DE
:10389000F092F721DF91CF911F910F91FF90EF9060
:1038A000DF90CF90BF900895E816F90660F7F2CF49
:1038B0001092F4211092F521892B61F781E090E0BC
:1038C0008093F6219093F721E5CF1F920F920FB6C8
:1038D0000F9211242F933F934F935F936F937F9396
:1038E0008F939F93AF93BF93EF93FF930E94F9053C
:1038F0009091A00AE091F32181E08E0F8093F32153
:10390000F0E0E55BF44D90838130E9F0843019F10B
:1039100090E02091492330914A238217930749F17F
:103920000E94FA05FF91EF91BF91AF919F918F9106
:103930007F916F915F914F913F912F910F900FBEAB
:103940000F901F90189580914B2B81508230D0F1B1
:103950001092F321E5CF80914C2B8F3F01F190E045
:103960008E3F9105A9F302968093492390934A23B1
:10397000D7CF20912021213061F120914C2B2F3F76
:1039800029F122E030E0821B930B8093492390932E
:103990004A231092F32181E08093F821C1CF8091D6
:1039A0004C2B90914D2B04968F3F910509F080F69A
:1039B00080914D2B90914E2B0496809349239093A8
:1039C0004A23AECF82E38093F921AACF24E030E0EE
:1039D000DACF82E08093850683E88093A20080910D
:1039E000A30A8F7C8093A30A87E88093A20080912A
:1039F000492390914A23C1CFCF93DF9300D0CDB715
:103A0000DEB723E130E029833A838093FD21909350
:103A1000FE2183E08093A50889818093A6088A818E
:103A20008F708093A70820E048E162E080E496E090
:103A30000E94301080E18093A408E3EAF8E08081DE
:103A4000806380830F900F90DF91CF9108951F9234
:103A50000F920FB60F9211242F938F939F93AF93D2
:103A6000BF93EF93FF938091A0088A3AE9F18F3AD0
:103A700009F449C09091FB21923009F448C008F440
:103A800072C0943009F44FC008F447C0953079F5FE
:103A9000809302221092FB218091FA218A3008F44F
:103AA00048C082EF99E7809360089093610881E0B5
:103AB0009AE7809368089093690881E08093FC21DD
:103AC00026E020932121E091FD21F091FE218091BB
:103AD000FF2190910022A0910122B09102228083C7
:103AE0009183A283B38303C081E08093FB21FF9184
:103AF000EF91BF91AF919F918F912F910F900FBE3A
:103B00000F901F90189582E08093FB21F0CF809357
:103B1000FF2183E08093FB21EACF8093002284E0A1
:103B20008093FB21E4CF8093012285E08093FB21E9
:103B3000DECF1092FA212091212189EF99E7821B93
:103B40009109809360089093610881E09AE78093DF
:103B500068089093690881E08093FC21222309F48E
:103B6000B2CF2150AECF992319F0913009F0BFCFD9
:103B70001092FB21BCCFAA1BBB1B51E107C0AA1F9F
:103B8000BB1FA617B70710F0A61BB70B881F991FFE
:103B90005A95A9F780959095BC01CD010895EE0F37
:103BA000FF1F0590F491E02D0994A29FB001B39FEF
:103BB000C001A39F700D811D1124911DB29F700D36
:103BC000811D1124911D08955058BB27AA270E94DA
:103BD000FC1D0C946F1F0E94611F38F00E94681F2B
:103BE00020F039F49F3F19F426F40C945E1F0EF474
:103BF000E095E7FB0C94581FE92F0E94801F58F3B3
:103C0000BA17620773078407950720F079F4A6F5C1
:103C10000C94A21F0EF4E0950B2EBA2FA02D0B01D1
:103C2000B90190010C01CA01A0011124FF27591B01
:103C300099F0593F50F4503E68F11A16F040A22F07
:103C4000232F342F4427585FF3CF46953795279578
:103C5000A795F0405395C9F77EF41F16BA0B620B77
:103C6000730B840BBAF09150A1F0FF0FBB1F661FBE
:103C7000771F881FC2F70EC0BA0F621F731F841F01
:103C800048F4879577956795B795F7959E3F08F027
:103C9000B0CF9395880F08F09927EE0F97958795E9
:103CA00008950E94341F08F481E008950E946A1E5E
:103CB0000C946F1F0E94681F58F00E94611F40F013
:103CC00029F45F3F29F00C94581F51110C94A31F45
:103CD0000C945E1F0E94801F68F39923B1F3552353
:103CE00091F3951B550BBB27AA276217730784070F
:103CF00038F09F5F5F4F220F331F441FAA1FA9F3A5
:103D000035D00E2E3AF0E0E832D091505040E69592
:103D1000001CCAF72BD0FE2F29D0660F771F881FF3
:103D2000BB1F261737074807AB07B0E809F0BB0BE6
:103D3000802DBF01FF2793585F4F3AF09E3F5105FA
:103D400078F00C94581F0C94A31F5F3FE4F3983E47
:103D5000D4F3869577956795B795F7959F5FC9F7E3
:103D6000880F911D9695879597F90895E1E0660F64
:103D7000771F881FBB1F621773078407BA0720F0DD
:103D8000621B730B840BBA0BEE1F88F7E095089546
:103D90000E94881F88F09F5798F0B92F9927B75134
:103DA000B0F0E1F0660F771F881F991F1AF0BA95DF
:103DB000C9F714C0B13091F00E94A21FB1E008957C
:103DC0000C94A21F672F782F8827B85F39F0B93F6E
:103DD000CCF3869577956795B395D9F73EF4909592
:103DE0008095709561957F4F8F4F9F4F0895E89410
:103DF00009C097FB3EF490958095709561957F4F33
:103E00008F4F9F4F9923A9F0F92F96E9BB279395E0
:103E1000F695879577956795B795F111F8CFFAF4F0
:103E2000BB0F11F460FF1BC06F5F7F4F8F4F9F4F21
:103E300016C0882311F096E911C0772321F09EE87F
:103E4000872F762F05C0662371F096E8862F70E0E5
:103E500060E02AF09A95660F771F881FDAF7880FBF
:103E60009695879597F90895990F0008550FAA0B15
:103E7000E0E8FEEF16161706E807F907C0F012167D
:103E80001306E407F50798F0621B730B840B950B80
:103E900039F40A2661F0232B242B252B21F40895D5
:103EA0000A2609F4A140A6958FEF811D811D089572
:103EB00097F99F6780E870E060E008959FEF80ECDD
:103EC000089500240A941616170618060906089580
:103ED00000240A9412161306140605060895092EE6
:103EE0000394000C11F4882352F0BB0F40F4BF2B55
:103EF00011F460FF04C06F5F7F4F8F4F9F4F089595
:103F000057FD9058440F551F59F05F3F71F047958A
:103F1000880F97FB991F61F09F3F79F0879508956F
:103F2000121613061406551FF2CF4695F1DF08C08E
:103F3000161617061806991FF1CF869571056105AB
:103F400008940895E894BB2766277727CB0197F953
:103F500008950E94BC1F0C946F1F0E94611F38F0CF
:103F60000E94681F20F0952311F00C94581F0C94A8
:103F70005E1F11240C94A31F0E94801F70F3959F55
:103F8000C1F3950F50E0551F629FF001729FBB2750
:103F9000F00DB11D639FAA27F00DB11DAA1F649FEC
:103FA0006627B00DA11D661F829F2227B00DA11D9F
:103FB000621F739FB00DA11D621F839FA00D611D25
:103FC000221F749F3327A00D611D231F849F600D46
:103FD000211D822F762F6A2F11249F5750409AF06F
:103FE000F1F088234AF0EE0FFF1FBB1F661F771FFB
:103FF000881F91505040A9F79E3F510580F00C94C6
:10400000581F0C94A31F5F3FE4F3983ED4F38695AA
:1040100077956795B795F795E7959F5FC1F7FE2B65
:10402000880F911D9695879597F90895FB01DC01FE
:1040300002C001900D9241505040D8F70895F89475
:02404000FFCFB0
:1040420030092E093806430630075E066D067C06E7
:1040520082061708C907E2084E09430A88068E0637
:104062004C08F00708093D0B320C94069A068108A9
:10407200B108A006A606AC06C506DF0605072E0790
:1040820035093309320940094E06410942094309FB
:104092004409450946094709480949094A094B099A
:1040A2004C094D093A093B093C093D093E093F09C2
:1040B20036093709380939093409DE06F8062607B0
:1040C2001322142215221622172218221C22202221
:1040D20021222222232224222522272229222A22A5
:1040E2002B222C222D222E22302232223322342243
:1040F200352236223722382239223A223B223C22EA
:1041020001000100010001000100010001000100A5
:104112000100010001000100010001000100010095
:104122000100010001000100010001000100010085
:104132000100010001000100010001000100010075
:104142000101010101040401010101010202010155
:10415200010101020201010101010101010101014B
:10416200010743616D657261436F6E74726F6C6CAF
:10417200657247656E32000F10100F100F1010A8F5
:1041820021AA21AB21AC21AD21AE21AF21B021B1B9
:1041920021B521B721B821B921D221D421010001B1
:1041A2000001000100010001000100010001000105
:1041B20000010001001900010001000201010101DA
:0A41C20001010104020101010201E4
:00000001FF
